{
  "_format": "hh-sol-artifact-1",
  "contractName": "DAO",
  "sourceName": "contracts/DAO.sol",
  "abi": [
    {
      "inputs": [
        {
          "internalType": "address",
          "name": "_tokenContract",
          "type": "address"
        }
      ],
      "stateMutability": "nonpayable",
      "type": "constructor"
    },
    {
      "inputs": [
        {
          "internalType": "string",
          "name": "hash",
          "type": "string"
        }
      ],
      "name": "createMerchant",
      "outputs": [
        {
          "internalType": "bool",
          "name": "",
          "type": "bool"
        }
      ],
      "stateMutability": "nonpayable",
      "type": "function"
    },
    {
      "inputs": [
        {
          "internalType": "address",
          "name": "_merchantAddress",
          "type": "address"
        }
      ],
      "name": "isMerchant",
      "outputs": [
        {
          "internalType": "bool",
          "name": "",
          "type": "bool"
        }
      ],
      "stateMutability": "view",
      "type": "function"
    },
    {
      "inputs": [
        {
          "internalType": "uint256",
          "name": "proposalId",
          "type": "uint256"
        }
      ],
      "name": "proposal",
      "outputs": [
        {
          "internalType": "string",
          "name": "hash",
          "type": "string"
        },
        {
          "internalType": "address",
          "name": "merchant",
          "type": "address"
        },
        {
          "internalType": "uint256",
          "name": "totalVotes",
          "type": "uint256"
        },
        {
          "internalType": "bool",
          "name": "approved",
          "type": "bool"
        }
      ],
      "stateMutability": "view",
      "type": "function"
    },
    {
      "inputs": [],
      "name": "totalMerchants",
      "outputs": [
        {
          "internalType": "uint256",
          "name": "",
          "type": "uint256"
        }
      ],
      "stateMutability": "view",
      "type": "function"
    },
    {
      "inputs": [],
      "name": "totalProposals",
      "outputs": [
        {
          "internalType": "uint256",
          "name": "",
          "type": "uint256"
        }
      ],
      "stateMutability": "view",
      "type": "function"
    },
    {
      "inputs": [
        {
          "internalType": "address",
          "name": "_newTokenContract",
          "type": "address"
        }
      ],
      "name": "updateTokenContract",
      "outputs": [
        {
          "internalType": "bool",
          "name": "",
          "type": "bool"
        }
      ],
      "stateMutability": "nonpayable",
      "type": "function"
    },
    {
      "inputs": [
        {
          "internalType": "uint256",
          "name": "proposalId",
          "type": "uint256"
        }
      ],
      "name": "vote",
      "outputs": [
        {
          "internalType": "bool",
          "name": "",
          "type": "bool"
        }
      ],
      "stateMutability": "nonpayable",
      "type": "function"
    }
  ],
  "bytecode": "0x60806040523480156200001157600080fd5b506040516200120f3803806200120f8339818101604052810190620000379190620000ed565b806000806101000a81548173ffffffffffffffffffffffffffffffffffffffff021916908373ffffffffffffffffffffffffffffffffffffffff16021790555062000087620000ce60201b60201c565b600160006101000a81548173ffffffffffffffffffffffffffffffffffffffff021916908373ffffffffffffffffffffffffffffffffffffffff1602179055505062000167565b600033905090565b600081519050620000e7816200014d565b92915050565b6000602082840312156200010057600080fd5b60006200011084828501620000d6565b91505092915050565b600062000126826200012d565b9050919050565b600073ffffffffffffffffffffffffffffffffffffffff82169050919050565b620001588162000119565b81146200016457600080fd5b50565b61109880620001776000396000f3fe608060405234801561001057600080fd5b506004361061007d5760003560e01c8063487b55f41161005b578063487b55f414610115578063989ced2614610133578063a78d80fc14610163578063c106d6fb146101815761007d565b80630121b93f146100825780631a2f7167146100b257806330326c17146100e2575b600080fd5b61009c60048036038101906100979190610a30565b6101b1565b6040516100a99190610b8f565b60405180910390f35b6100cc60048036038101906100c791906109c6565b6104f9565b6040516100d99190610b8f565b60405180910390f35b6100fc60048036038101906100f79190610a30565b61054f565b60405161010c9493929190610baa565b60405180910390f35b61011d610699565b60405161012a9190610c76565b60405180910390f35b61014d600480360381019061014891906109c6565b6106a3565b60405161015a9190610b8f565b60405180910390f35b61016b61075d565b6040516101789190610c76565b60405180910390f35b61019b600480360381019061019691906109ef565b610767565b6040516101a89190610b8f565b60405180910390f35b60008060008054906101000a900473ffffffffffffffffffffffffffffffffffffffff1673ffffffffffffffffffffffffffffffffffffffff166370a082316101f8610874565b6040518263ffffffff1660e01b81526004016102149190610b74565b60206040518083038186803b15801561022c57600080fd5b505afa158015610240573d6000803e3d6000fd5b505050506040513d601f19601f820116820180604052508101906102649190610a59565b905060008060009054906101000a900473ffffffffffffffffffffffffffffffffffffffff1673ffffffffffffffffffffffffffffffffffffffff166318160ddd6040518163ffffffff1660e01b815260040160206040518083038186803b1580156102cf57600080fd5b505afa1580156102e3573d6000803e3d6000fd5b505050506040513d601f19601f820116820180604052508101906103079190610a59565b90506000821161034c576040517f08c379a000000000000000000000000000000000000000000000000000000000815260040161034390610c36565b60405180910390fd5b60008411801561035e57506003548411155b61039d576040517f08c379a000000000000000000000000000000000000000000000000000000000815260040161039490610c56565b60405180910390fd5b60006005600086815260200190815260200160002090508060030160009054906101000a900460ff1615610406576040517f08c379a00000000000000000000000000000000000000000000000000000000081526004016103fd90610c16565b60405180910390fd5b8281600201600082825461041a9190610d03565b9250508190555060028261042e9190610d59565b816002015411156104ed5760018160030160006101000a81548160ff0219169083151502179055506001600260008282546104699190610d03565b925050819055506001600460008360010160009054906101000a900473ffffffffffffffffffffffffffffffffffffffff1673ffffffffffffffffffffffffffffffffffffffff1673ffffffffffffffffffffffffffffffffffffffff16815260200190815260200160002060006101000a81548160ff0219169083151502179055505b60019350505050919050565b6000600460008373ffffffffffffffffffffffffffffffffffffffff1673ffffffffffffffffffffffffffffffffffffffff16815260200190815260200160002060009054906101000a900460ff169050919050565b60606000806000808511801561056757506003548511155b6105a6576040517f08c379a000000000000000000000000000000000000000000000000000000000815260040161059d90610c56565b60405180910390fd5b6000600560008781526020019081526020016000209050806000018160010160009054906101000a900473ffffffffffffffffffffffffffffffffffffffff1682600201548360030160009054906101000a900460ff1683805461060990610e14565b80601f016020809104026020016040519081016040528092919081815260200182805461063590610e14565b80156106825780601f1061065757610100808354040283529160200191610682565b820191906000526020600020905b81548152906001019060200180831161066557829003601f168201915b505050505093509450945094509450509193509193565b6000600254905090565b60008073ffffffffffffffffffffffffffffffffffffffff168273ffffffffffffffffffffffffffffffffffffffff161415610714576040517f08c379a000000000000000000000000000000000000000000000000000000000815260040161070b90610bf6565b60405180910390fd5b816000806101000a81548173ffffffffffffffffffffffffffffffffffffffff021916908373ffffffffffffffffffffffffffffffffffffffff16021790555060019050919050565b6000600354905090565b600060016003600082825461077c9190610d03565b92505081905550604051806080016040528083815260200161079c610874565b73ffffffffffffffffffffffffffffffffffffffff168152602001600081526020016000151581525060056000600354815260200190815260200160002060008201518160000190805190602001906107f692919061087c565b5060208201518160010160006101000a81548173ffffffffffffffffffffffffffffffffffffffff021916908373ffffffffffffffffffffffffffffffffffffffff1602179055506040820151816002015560608201518160030160006101000a81548160ff02191690831515021790555090505060019050919050565b600033905090565b82805461088890610e14565b90600052602060002090601f0160209004810192826108aa57600085556108f1565b82601f106108c357805160ff19168380011785556108f1565b828001600101855582156108f1579182015b828111156108f05782518255916020019190600101906108d5565b5b5090506108fe9190610902565b5090565b5b8082111561091b576000816000905550600101610903565b5090565b600061093261092d84610cb6565b610c91565b90508281526020810184848401111561094a57600080fd5b610955848285610dd2565b509392505050565b60008135905061096c81611034565b92915050565b600082601f83011261098357600080fd5b813561099384826020860161091f565b91505092915050565b6000813590506109ab8161104b565b92915050565b6000815190506109c08161104b565b92915050565b6000602082840312156109d857600080fd5b60006109e68482850161095d565b91505092915050565b600060208284031215610a0157600080fd5b600082013567ffffffffffffffff811115610a1b57600080fd5b610a2784828501610972565b91505092915050565b600060208284031215610a4257600080fd5b6000610a508482850161099c565b91505092915050565b600060208284031215610a6b57600080fd5b6000610a79848285016109b1565b91505092915050565b610a8b81610d8a565b82525050565b610a9a81610d9c565b82525050565b6000610aab82610ce7565b610ab58185610cf2565b9350610ac5818560208601610de1565b610ace81610f33565b840191505092915050565b6000610ae6602b83610cf2565b9150610af182610f44565b604082019050919050565b6000610b09602083610cf2565b9150610b1482610f93565b602082019050919050565b6000610b2c602483610cf2565b9150610b3782610fbc565b604082019050919050565b6000610b4f601a83610cf2565b9150610b5a8261100b565b602082019050919050565b610b6e81610dc8565b82525050565b6000602082019050610b896000830184610a82565b92915050565b6000602082019050610ba46000830184610a91565b92915050565b60006080820190508181036000830152610bc48187610aa0565b9050610bd36020830186610a82565b610be06040830185610b65565b610bed6060830184610a91565b95945050505050565b60006020820190508181036000830152610c0f81610ad9565b9050919050565b60006020820190508181036000830152610c2f81610afc565b9050919050565b60006020820190508181036000830152610c4f81610b1f565b9050919050565b60006020820190508181036000830152610c6f81610b42565b9050919050565b6000602082019050610c8b6000830184610b65565b92915050565b6000610c9b610cac565b9050610ca78282610e46565b919050565b6000604051905090565b600067ffffffffffffffff821115610cd157610cd0610f04565b5b610cda82610f33565b9050602081019050919050565b600081519050919050565b600082825260208201905092915050565b6000610d0e82610dc8565b9150610d1983610dc8565b9250827fffffffffffffffffffffffffffffffffffffffffffffffffffffffffffffffff03821115610d4e57610d4d610e77565b5b828201905092915050565b6000610d6482610dc8565b9150610d6f83610dc8565b925082610d7f57610d7e610ea6565b5b828204905092915050565b6000610d9582610da8565b9050919050565b60008115159050919050565b600073ffffffffffffffffffffffffffffffffffffffff82169050919050565b6000819050919050565b82818337600083830152505050565b60005b83811015610dff578082015181840152602081019050610de4565b83811115610e0e576000848401525b50505050565b60006002820490506001821680610e2c57607f821691505b60208210811415610e4057610e3f610ed5565b5b50919050565b610e4f82610f33565b810181811067ffffffffffffffff82111715610e6e57610e6d610f04565b5b80604052505050565b7f4e487b7100000000000000000000000000000000000000000000000000000000600052601160045260246000fd5b7f4e487b7100000000000000000000000000000000000000000000000000000000600052601260045260246000fd5b7f4e487b7100000000000000000000000000000000000000000000000000000000600052602260045260246000fd5b7f4e487b7100000000000000000000000000000000000000000000000000000000600052604160045260246000fd5b6000601f19601f8301169050919050565b7f4572726f723a204e657720746f6b656e20636f6e74726163742063616e206e6560008201527f766572206265207a65726f000000000000000000000000000000000000000000602082015250565b7f4572726f723a2050726f706f73616c20616c726561647920617070726f766564600082015250565b7f4572726f723a20566f7465722073686f756c642068617665205a4e465420536860008201527f6172657300000000000000000000000000000000000000000000000000000000602082015250565b7f4572726f723a20496e76616c69642050726f706f73616c204944000000000000600082015250565b61103d81610d8a565b811461104857600080fd5b50565b61105481610dc8565b811461105f57600080fd5b5056fea2646970667358221220ca060a7b236cdcb8d8d8acfc5ceae7e0bdcc3e57c062714467be7f934639fd8464736f6c63430008040033",
  "linkReferences": {},
  "deployedLinkReferences": {}
}